{
  "contractName": "Document",
  "abi": [
    {
      "inputs": [
        {
          "internalType": "string",
          "name": "na",
          "type": "string"
        },
        {
          "internalType": "string",
          "name": "desc",
          "type": "string"
        },
        {
          "internalType": "string",
          "name": "ipfs",
          "type": "string"
        },
        {
          "internalType": "address",
          "name": "creator",
          "type": "address"
        },
        {
          "internalType": "string",
          "name": "ownerName",
          "type": "string"
        }
      ],
      "payable": false,
      "stateMutability": "nonpayable",
      "type": "constructor"
    },
    {
      "anonymous": false,
      "inputs": [
        {
          "indexed": false,
          "internalType": "address",
          "name": "signer",
          "type": "address"
        }
      ],
      "name": "signed",
      "type": "event"
    },
    {
      "constant": true,
      "inputs": [
        {
          "internalType": "address",
          "name": "",
          "type": "address"
        }
      ],
      "name": "addressToAllowed",
      "outputs": [
        {
          "internalType": "bool",
          "name": "",
          "type": "bool"
        }
      ],
      "payable": false,
      "stateMutability": "view",
      "type": "function"
    },
    {
      "constant": true,
      "inputs": [
        {
          "internalType": "address",
          "name": "",
          "type": "address"
        }
      ],
      "name": "addressToSigned",
      "outputs": [
        {
          "internalType": "bool",
          "name": "",
          "type": "bool"
        }
      ],
      "payable": false,
      "stateMutability": "view",
      "type": "function"
    },
    {
      "constant": true,
      "inputs": [
        {
          "internalType": "address",
          "name": "",
          "type": "address"
        }
      ],
      "name": "addressToString",
      "outputs": [
        {
          "internalType": "string",
          "name": "",
          "type": "string"
        }
      ],
      "payable": false,
      "stateMutability": "view",
      "type": "function"
    },
    {
      "constant": true,
      "inputs": [
        {
          "internalType": "address",
          "name": "",
          "type": "address"
        }
      ],
      "name": "addressToTimeSigned",
      "outputs": [
        {
          "internalType": "uint256",
          "name": "",
          "type": "uint256"
        }
      ],
      "payable": false,
      "stateMutability": "view",
      "type": "function"
    },
    {
      "constant": true,
      "inputs": [],
      "name": "description",
      "outputs": [
        {
          "internalType": "string",
          "name": "",
          "type": "string"
        }
      ],
      "payable": false,
      "stateMutability": "view",
      "type": "function"
    },
    {
      "constant": true,
      "inputs": [],
      "name": "ipfs_hash",
      "outputs": [
        {
          "internalType": "string",
          "name": "",
          "type": "string"
        }
      ],
      "payable": false,
      "stateMutability": "view",
      "type": "function"
    },
    {
      "constant": true,
      "inputs": [],
      "name": "left",
      "outputs": [
        {
          "internalType": "uint256",
          "name": "",
          "type": "uint256"
        }
      ],
      "payable": false,
      "stateMutability": "view",
      "type": "function"
    },
    {
      "constant": true,
      "inputs": [],
      "name": "name",
      "outputs": [
        {
          "internalType": "string",
          "name": "",
          "type": "string"
        }
      ],
      "payable": false,
      "stateMutability": "view",
      "type": "function"
    },
    {
      "constant": true,
      "inputs": [],
      "name": "owner",
      "outputs": [
        {
          "internalType": "address",
          "name": "",
          "type": "address"
        }
      ],
      "payable": false,
      "stateMutability": "view",
      "type": "function"
    },
    {
      "constant": true,
      "inputs": [
        {
          "internalType": "uint256",
          "name": "",
          "type": "uint256"
        }
      ],
      "name": "signers",
      "outputs": [
        {
          "internalType": "address",
          "name": "",
          "type": "address"
        }
      ],
      "payable": false,
      "stateMutability": "view",
      "type": "function"
    },
    {
      "constant": true,
      "inputs": [],
      "name": "timestamp",
      "outputs": [
        {
          "internalType": "uint256",
          "name": "",
          "type": "uint256"
        }
      ],
      "payable": false,
      "stateMutability": "view",
      "type": "function"
    },
    {
      "constant": false,
      "inputs": [],
      "name": "sign",
      "outputs": [],
      "payable": true,
      "stateMutability": "payable",
      "type": "function"
    },
    {
      "constant": false,
      "inputs": [
        {
          "internalType": "string",
          "name": "signer_name",
          "type": "string"
        },
        {
          "internalType": "address",
          "name": "signer",
          "type": "address"
        },
        {
          "internalType": "address",
          "name": "sender",
          "type": "address"
        }
      ],
      "name": "allowToSign",
      "outputs": [],
      "payable": false,
      "stateMutability": "nonpayable",
      "type": "function"
    },
    {
      "constant": true,
      "inputs": [],
      "name": "getSignersCount",
      "outputs": [
        {
          "internalType": "uint256",
          "name": "",
          "type": "uint256"
        }
      ],
      "payable": false,
      "stateMutability": "view",
      "type": "function"
    },
    {
      "constant": true,
      "inputs": [
        {
          "internalType": "string",
          "name": "hash",
          "type": "string"
        }
      ],
      "name": "checkValidity",
      "outputs": [
        {
          "internalType": "bool",
          "name": "",
          "type": "bool"
        }
      ],
      "payable": false,
      "stateMutability": "view",
      "type": "function"
    }
  ],
  "bytecode": "0x60806040523480156200001157600080fd5b506040516200185038038062001850833981810160405260a08110156200003757600080fd5b81019080805160405193929190846401000000008211156200005857600080fd5b838201915060208201858111156200006f57600080fd5b82518660018202830111640100000000821117156200008d57600080fd5b8083526020830192505050908051906020019080838360005b83811015620000c3578082015181840152602081019050620000a6565b50505050905090810190601f168015620000f15780820380516001836020036101000a031916815260200191505b50604052602001805160405193929190846401000000008211156200011557600080fd5b838201915060208201858111156200012c57600080fd5b82518660018202830111640100000000821117156200014a57600080fd5b8083526020830192505050908051906020019080838360005b838110156200018057808201518184015260208101905062000163565b50505050905090810190601f168015620001ae5780820380516001836020036101000a031916815260200191505b5060405260200180516040519392919084640100000000821115620001d257600080fd5b83820191506020820185811115620001e957600080fd5b82518660018202830111640100000000821117156200020757600080fd5b8083526020830192505050908051906020019080838360005b838110156200023d57808201518184015260208101905062000220565b50505050905090810190601f1680156200026b5780820380516001836020036101000a031916815260200191505b5060405260200180519060200190929190805160405193929190846401000000008211156200029957600080fd5b83820191506020820185811115620002b057600080fd5b8251866001820283011164010000000082111715620002ce57600080fd5b8083526020830192505050908051906020019080838360005b8381101562000304578082015181840152602081019050620002e7565b50505050905090810190601f168015620003325780820380516001836020036101000a031916815260200191505b50604052505050816000806101000a81548173ffffffffffffffffffffffffffffffffffffffff021916908373ffffffffffffffffffffffffffffffffffffffff1602179055508460019080519060200190620003919291906200051d565b508360029080519060200190620003aa9291906200051d565b5060036000809054906101000a900473ffffffffffffffffffffffffffffffffffffffff1690806001815401808255809150509060018203906000526020600020016000909192909190916101000a81548173ffffffffffffffffffffffffffffffffffffffff021916908373ffffffffffffffffffffffffffffffffffffffff16021790555050600a600081548092919060010191905055506001600460008473ffffffffffffffffffffffffffffffffffffffff1673ffffffffffffffffffffffffffffffffffffffff16815260200190815260200160002060006101000a81548160ff02191690831515021790555080600560008473ffffffffffffffffffffffffffffffffffffffff1673ffffffffffffffffffffffffffffffffffffffff1681526020019081526020016000209080519060200190620004f19291906200051d565b5082600890805190602001906200050a9291906200051d565b50426009819055505050505050620005cc565b828054600181600116156101000203166002900490600052602060002090601f016020900481019282601f106200056057805160ff191683800117855562000591565b8280016001018555821562000591579182015b828111156200059057825182559160200191906001019062000573565b5b509050620005a09190620005a4565b5090565b620005c991905b80821115620005c5576000816000905550600101620005ab565b5090565b90565b61127480620005dc6000396000f3fe6080604052600436106100e85760003560e01c8063809051db1161008a578063a0c1deb411610059578063a0c1deb414610648578063b80777ea14610673578063db0e33581461069e578063f4d59b3a14610703576100e8565b8063809051db146103f05780638361d9e7146104805780638da5cb5b146105885780639646d3fc146105df576100e8565b80632079fb9a116100c65780632079fb9a146102115780632ca151221461028c5780635e57966d146102965780637284e41614610360576100e8565b806306fdde03146100ed57806316e640481461017d57806317ff5fbd146101a8575b600080fd5b3480156100f957600080fd5b506101026107e3565b6040518080602001828103825283818151815260200191508051906020019080838360005b83811015610142578082015181840152602081019050610127565b50505050905090810190601f16801561016f5780820380516001836020036101000a031916815260200191505b509250505060405180910390f35b34801561018957600080fd5b50610192610881565b6040518082815260200191505060405180910390f35b3480156101b457600080fd5b506101f7600480360360208110156101cb57600080fd5b81019080803573ffffffffffffffffffffffffffffffffffffffff169060200190929190505050610887565b604051808215151515815260200191505060405180910390f35b34801561021d57600080fd5b5061024a6004803603602081101561023457600080fd5b81019080803590602001909291905050506108a7565b604051808273ffffffffffffffffffffffffffffffffffffffff1673ffffffffffffffffffffffffffffffffffffffff16815260200191505060405180910390f35b6102946108e3565b005b3480156102a257600080fd5b506102e5600480360360208110156102b957600080fd5b81019080803573ffffffffffffffffffffffffffffffffffffffff169060200190929190505050610b99565b6040518080602001828103825283818151815260200191508051906020019080838360005b8381101561032557808201518184015260208101905061030a565b50505050905090810190601f1680156103525780820380516001836020036101000a031916815260200191505b509250505060405180910390f35b34801561036c57600080fd5b50610375610c49565b6040518080602001828103825283818151815260200191508051906020019080838360005b838110156103b557808201518184015260208101905061039a565b50505050905090810190601f1680156103e25780820380516001836020036101000a031916815260200191505b509250505060405180910390f35b3480156103fc57600080fd5b50610405610ce7565b6040518080602001828103825283818151815260200191508051906020019080838360005b8381101561044557808201518184015260208101905061042a565b50505050905090810190601f1680156104725780820380516001836020036101000a031916815260200191505b509250505060405180910390f35b34801561048c57600080fd5b50610586600480360360608110156104a357600080fd5b81019080803590602001906401000000008111156104c057600080fd5b8201836020820111156104d257600080fd5b803590602001918460018302840111640100000000831117156104f457600080fd5b91908080601f016020809104026020016040519081016040528093929190818152602001838380828437600081840152601f19601f820116905080830192505050505050509192919290803573ffffffffffffffffffffffffffffffffffffffff169060200190929190803573ffffffffffffffffffffffffffffffffffffffff169060200190929190505050610d85565b005b34801561059457600080fd5b5061059d61101a565b604051808273ffffffffffffffffffffffffffffffffffffffff1673ffffffffffffffffffffffffffffffffffffffff16815260200191505060405180910390f35b3480156105eb57600080fd5b5061062e6004803603602081101561060257600080fd5b81019080803573ffffffffffffffffffffffffffffffffffffffff16906020019092919050505061103f565b604051808215151515815260200191505060405180910390f35b34801561065457600080fd5b5061065d61105f565b6040518082815260200191505060405180910390f35b34801561067f57600080fd5b5061068861106c565b6040518082815260200191505060405180910390f35b3480156106aa57600080fd5b506106ed600480360360208110156106c157600080fd5b81019080803573ffffffffffffffffffffffffffffffffffffffff169060200190929190505050611072565b6040518082815260200191505060405180910390f35b34801561070f57600080fd5b506107c96004803603602081101561072657600080fd5b810190808035906020019064010000000081111561074357600080fd5b82018360208201111561075557600080fd5b8035906020019184600183028401116401000000008311171561077757600080fd5b91908080601f016020809104026020016040519081016040528093929190818152602001838380828437600081840152601f19601f82011690508083019250505050505050919291929050505061108a565b604051808215151515815260200191505060405180910390f35b60018054600181600116156101000203166002900480601f0160208091040260200160405190810160405280929190818152602001828054600181600116156101000203166002900480156108795780601f1061084e57610100808354040283529160200191610879565b820191906000526020600020905b81548152906001019060200180831161085c57829003601f168201915b505050505081565b600a5481565b60046020528060005260406000206000915054906101000a900460ff1681565b600381815481106108b457fe5b906000526020600020016000915054906101000a900473ffffffffffffffffffffffffffffffffffffffff1681565b3360011515600460008373ffffffffffffffffffffffffffffffffffffffff1673ffffffffffffffffffffffffffffffffffffffff16815260200190815260200160002060009054906101000a900460ff1615151461098d576040517f08c379a00000000000000000000000000000000000000000000000000000000081526004018080602001828103825260388152602001806111e26038913960400191505060405180910390fd5b60011515600760008373ffffffffffffffffffffffffffffffffffffffff1673ffffffffffffffffffffffffffffffffffffffff16815260200190815260200160002060009054906101000a900460ff1615151415610a37576040517f08c379a00000000000000000000000000000000000000000000000000000000081526004018080602001828103825260258152602001806111bd6025913960400191505060405180910390fd5b60003490506001600760003373ffffffffffffffffffffffffffffffffffffffff1673ffffffffffffffffffffffffffffffffffffffff16815260200190815260200160002060006101000a81548160ff02191690831515021790555042600660003373ffffffffffffffffffffffffffffffffffffffff1673ffffffffffffffffffffffffffffffffffffffff16815260200190815260200160002081905550600a60008154809291906001900391905055503373ffffffffffffffffffffffffffffffffffffffff166108fc829081150290604051600060405180830381858888f19350505050158015610b31573d6000803e3d6000fd5b507f0555ff41484cef04cf22efe5c7f3294b7e1118a398ea397cfc7df1a06173a0e933604051808273ffffffffffffffffffffffffffffffffffffffff1673ffffffffffffffffffffffffffffffffffffffff16815260200191505060405180910390a15050565b60056020528060005260406000206000915090508054600181600116156101000203166002900480601f016020809104026020016040519081016040528092919081815260200182805460018160011615610100020316600290048015610c415780601f10610c1657610100808354040283529160200191610c41565b820191906000526020600020905b815481529060010190602001808311610c2457829003601f168201915b505050505081565b60028054600181600116156101000203166002900480601f016020809104026020016040519081016040528092919081815260200182805460018160011615610100020316600290048015610cdf5780601f10610cb457610100808354040283529160200191610cdf565b820191906000526020600020905b815481529060010190602001808311610cc257829003601f168201915b505050505081565b60088054600181600116156101000203166002900480601f016020809104026020016040519081016040528092919081815260200182805460018160011615610100020316600290048015610d7d5780601f10610d5257610100808354040283529160200191610d7d565b820191906000526020600020905b815481529060010190602001808311610d6057829003601f168201915b505050505081565b6000809054906101000a900473ffffffffffffffffffffffffffffffffffffffff1673ffffffffffffffffffffffffffffffffffffffff168173ffffffffffffffffffffffffffffffffffffffff1614610e2a576040517f08c379a000000000000000000000000000000000000000000000000000000000815260040180806020018281038252602681526020018061121a6026913960400191505060405180910390fd5b60011515600460008473ffffffffffffffffffffffffffffffffffffffff1673ffffffffffffffffffffffffffffffffffffffff16815260200190815260200160002060009054906101000a900460ff1615151415610ef1576040517f08c379a00000000000000000000000000000000000000000000000000000000081526004018080602001828103825260188152602001807f416c726561647920616c6c6f77656420746f207369676e2e000000000000000081525060200191505060405180910390fd5b60038290806001815401808255809150509060018203906000526020600020016000909192909190916101000a81548173ffffffffffffffffffffffffffffffffffffffff021916908373ffffffffffffffffffffffffffffffffffffffff16021790555050600a600081548092919060010191905055506001600460008473ffffffffffffffffffffffffffffffffffffffff1673ffffffffffffffffffffffffffffffffffffffff16815260200190815260200160002060006101000a81548160ff02191690831515021790555082600560008473ffffffffffffffffffffffffffffffffffffffff1673ffffffffffffffffffffffffffffffffffffffff1681526020019081526020016000209080519060200190611014929190611117565b50505050565b6000809054906101000a900473ffffffffffffffffffffffffffffffffffffffff1681565b60076020528060005260406000206000915054906101000a900460ff1681565b6000600380549050905090565b60095481565b60066020528060005260406000206000915090505481565b6000600860405180828054600181600116156101000203166002900480156110e95780601f106110c75761010080835404028352918201916110e9565b820191906000526020600020905b8154815290600101906020018083116110d5575b505091505060405180910390208280519060200120141561110d5760019050611112565b600090505b919050565b828054600181600116156101000203166002900490600052602060002090601f016020900481019282601f1061115857805160ff1916838001178555611186565b82800160010185558215611186579182015b8281111561118557825182559160200191906001019061116a565b5b5090506111939190611197565b5090565b6111b991905b808211156111b557600081600090555060010161119d565b5090565b9056fe596f75206861766520616c7265616479207369676e65642074686520646f63756d656e742e536f7272792c20796f7520646f206e6f742068617665207065726d697373696f6e20746f207369676e207468697320646f63756d656e742e596f7520617265206e6f7420746865206f776e6572206f662074686520646f63756d656e742ea265627a7a723158204b52be9010bdc442072fcaa65b6f8850a1aaf3776d8600826f3a419a499b2fac64736f6c63430005100032",
  "source": "pragma solidity >= 0.4.22;\r\n\r\ncontract Document {\r\n    \r\n    address public owner;\r\n    \r\n    string public name;\r\n    string public description;\r\n\r\n    address[] public signers;\r\n    \r\n    mapping(address => bool) public addressToAllowed;\r\n    mapping(address => string) public addressToString;\r\n    mapping(address => uint) public addressToTimeSigned;\r\n    mapping(address => bool) public addressToSigned;\r\n    \r\n    string public ipfs_hash; \r\n    \r\n    uint public timestamp;\r\n    uint public left;\r\n    \r\n    //Events\r\n    event signed(address signer);\r\n    \r\n    constructor(string memory na, string memory desc, string memory ipfs, address creator, string memory ownerName) public {\r\n        owner = creator;\r\n        name = na;\r\n        description = desc;\r\n\r\n        signers.push(owner);\r\n        left++;\r\n        addressToAllowed[creator] = true;\r\n        addressToString[creator] = ownerName;\r\n        \r\n        ipfs_hash = ipfs;\r\n        \r\n        timestamp = block.timestamp;\r\n    }\r\n    \r\n    //Sign logic\r\n    function sign() external payable isSigner(msg.sender) {\r\n        uint sentAmt = msg.value;\r\n        \r\n        addressToSigned[msg.sender] = true;\r\n        addressToTimeSigned[msg.sender] = block.timestamp;\r\n        \r\n        left--;\r\n        \r\n        //Return amount\r\n        (msg.sender).transfer(sentAmt);\r\n        \r\n        //Emit sign event\r\n        emit signed(msg.sender);\r\n    }\r\n    \r\n    //Add recipient\r\n    function allowToSign(string memory signer_name, address signer, address sender) public {\r\n        require(sender == owner, \"You are not the owner of the document.\");\r\n        require(addressToAllowed[signer] != true, \"Already allowed to sign.\");\r\n        \r\n        signers.push(signer);\r\n        left++;\r\n        \r\n        addressToAllowed[signer] = true;\r\n        addressToString[signer] = signer_name;\r\n    }\r\n    \r\n    //No. of signers\r\n    function getSignersCount() public view returns(uint){\r\n        return signers.length;\r\n    }\r\n    \r\n    function checkValidity(string memory hash) public view returns(bool){\r\n        if(keccak256(bytes(hash)) == keccak256(bytes(ipfs_hash)))\r\n            return true;\r\n        else\r\n            return false;\r\n    }\r\n    \r\n    modifier isSigner(address sender){\r\n        require(addressToAllowed[sender] == true, \"Sorry, you do not have permission to sign this document.\");\r\n        require(addressToSigned[sender] != true, \"You have already signed the document.\");\r\n        _;\r\n    }\r\n}",
  "sourcePath": "C:\\Users\\AnshuJalan\\Documents\\Ethereum\\you-sign-truffle\\contracts\\Document.sol",
  "compiler": {
    "name": "solc",
    "version": "0.5.16+commit.9c3226ce.Emscripten.clang"
  },
  "schemaVersion": "3.0.22",
  "updatedAt": "2020-02-28T16:27:47.350Z",
  "devdoc": {
    "methods": {}
  },
  "userdoc": {
    "methods": {}
  }
}